S00C0000436152652E73726563BD
S11300000C9434000C9465020C94F7030C94510086
S11300100C9402040C940D040C9418040C94230402
S11300200C942E040C9439040C9444040C9423036F
S11300300C94EC030C944F040C945A040C94650433
S11300400C9470040C947B040C94A1020C9486040C
S11300500C94E0020C9417020C9491040C949C04EC
S11300600C94A7040C94B20411241FBECFEFD8E063
S1130070DEBFCDBF14E0A0E0B1E0EEEEF6E202C0D8
S113008005900D92A031B107D9F727E0A0E1B4E0C3
S113009001C01D92AF36B207E1F70E9478060C94B6
S11300A075130C94BD04CF93DF931F92CDB7DEB7C5
S11300B089838CE790E02CE730E0F9012081207FF0
S11300C0FC0120838CE790E02CE730E0F9012081EB
S11300D0322F29812F70232BFC0120838AE790E0A3
S11300E02AE730E0F90120812F7EFC0120838AE792
S11300F090E02AE730E0F90120812064FC012083AC
S11301008AE790E02AE730E0F90120812062FC01CF
S113011020838AE790E02AE730E0F9012081286013
S1130120FC0120838AE790E02AE730E0F90120818E
S11301302068FC01208385E490E025E430E0F901A7
S113014020812460FC01208300000F90DF91CF9177
S11301500895CF93DF93CDB7DEB78AE790E02AE71F
S113016030E0F90120812771FC01208385E490E0CF
S113017025E430E0F90120812B7FFC01208300007D
S1130180DF91CF910895CF93DF93CDB7DEB78CE79E
S113019090E020E4FC0120838AE790E02FEAFC0150
S11301A020838BE790E023E0FC0120830000DF91B3
S11301B0CF910895CF93DF93CDB7DEB785E290E07A
S11301C025E230E0F90120812B7FFC012083DF91BF
S11301D0CF910895CF93DF93CDB7DEB788E290E057
S11301E028E230E0F90120812062FC012083DF91C4
S11301F0CF910895CF93DF93CDB7DEB788E290E037
S113020028E230E0F90120812860FC012083DF919D
S1130210CF910895CF93DF93CDB7DEB788E290E016
S113022028E230E0F90120812061FC012083DF9184
S1130230CF910895CF93DF93CDB7DEB788E290E0F6
S113024028E230E0F901308120E22327FC012083F9
S1130250DF91CF910895CF93DF93CDB7DEB788E2D6
S113026090E028E230E0F901308128E02327FC0106
S11302702083DF91CF910895CF93DF93CDB7DEB77D
S113028088E290E028E230E0F901308120E1232780
S1130290FC012083DF91CF910895CF93DF93CDB7F5
S11302A0DEB788E290E028E230E0F90120812F7D7A
S11302B0FC012083DF91CF910895CF93DF93CDB7D5
S11302C0DEB78BE290E02BE230E0F9012081286078
S11302D0FC012083DF91CF910895CF93DF93CDB7B5
S11302E0DEB78BE290E02BE230E0F901308128E0C8
S11302F02327FC012083DF91CF910895CF93DF93CF
S1130300CDB7DEB78BE290E02BE230E0F90120813B
S1130310277FFC012083DF91CF910895CF93DF9352
S1130320CDB7DEB70E94EA0081E08093A00681E0A9
S113033090E09093A4068093A306DF91CF91089553
S1130340CF93DF93CDB7DEB70E944D011092A00684
S1130350DF91CF910895CF93DF93CDB7DEB70E949D
S1130360FA0081E08093960681E090E090939A06EB
S113037080939906DF91CF910895CF93DF93CDB702
S1130380DEB70E940A0181E080939B0681E090E041
S113039090939F0680939E06DF91CF910895CF930B
S11303A0DF93CDB7DEB70E945D0181E08093A5069F
S11303B081E090E09093A9068093A806DF91CF9105
S11303C00895CF93DF93CDB7DEB70E947E0181E01D
S11303D08093AA068FE090E09093AE068093AD06DA
S11303E0DF91CF910895CF93DF9300D0CDB7DEB7DF
S11303F01A8283E290E0FC018081982F93708A81B5
S1130400892B8A838A81813011F48AE089838A81E5
S1130410882311F48FE089838A81823011F484E186
S1130420898389810F900F90DF91CF9108951F9256
S11304300F9200905F000F9211242F933F938F939C
S11304409F93EF93FF93CF93DF93CDB7DEB7809164
S11304508E06882F90E028E730E0F9012081318171
S1130460880F991F835D984FFC013183208380910D
S11304708F068E3180F480918E068F5F80938E0676
S113048080918F068F5F80938F0680918E068E31C8
S113049010F010928E0680918F0685E390E025E39C
S11304A030E0F90120812260FC0120830000DF910B
S11304B0CF91FF91EF919F918F913F912F910F9049
S11304C000925F000F901F9018951F920F9200905A
S11304D05F000F9211242F933F934F935F936F9379
S11304E07F938F939F93AF93BF93EF93FF93CF9398
S11304F0DF93CDB7DEB781E08093950680918C06BB
S1130500843011F40E94E1018CE390E02CE330E0AC
S1130510F9012081FC0120830000DF91CF91FF913C
S1130520EF91BF91AF919F918F917F916F915F9167
S11305304F913F912F910F9000925F000F901F9069
S113054018951F920F9200905F000F9211242F9321
S11305503F938F939F93EF93FF93CF93DF93CDB705
S1130560DEB780919306882F90E026EC30E0F90105
S113057020818C5E984FFC01208380919406893100
S113058080F4809193068F5F809393068091940604
S11305908F5F8093940680919306893110F01092B6
S11305A093060000DF91CF91FF91EF919F918F917E
S11305B03F912F910F9000925F000F901F9018951C
S11305C01F920F9200905F000F9211242F933F937C
S11305D08F939F93EF93FF93CF93DF93CDB7DEB7C2
S11305E080919206882301F186EC90E02091910697
S11305F0222F30E02550394FF9012081FC0120835E
S113060080919206882381F0809191068F5F809378
S11306109106809192068150809392068091910672
S1130620893110F0109291060000DF91CF91FF9173
S1130630EF919F918F913F912F910F9000925F00C6
S11306400F901F9018951F920F9200905F000F92C9
S113065011242F933F934F935F936F937F938F93C3
S11306609F93AF93BF93EF93FF93CF93DF93CDB754
S1130670DEB78091A0068130D1F42091A10630919B
S1130680A2068091A3069091A4062817390730F09A
S11306900E941A011092A2061092A1068091A1064E
S11306A09091A20601969093A2068093A106809150
S11306B096068130D1F42091970630919806809166
S11306C0990690919A062817390730F00E942B0159
S11306D0109298061092970680919706909198062A
S11306E00196909398068093970680919B0681309B
S11306F0D1F420919C0630919D0680919E069091A4
S11307009F062817390730F00E943C0110929D067D
S113071010929C0680919C0690919D060196909360
S11307209D0680939C068091AA06813019F50E944B
S11307307E011092A5062091AB063091AC06809103
S1130740AD069091AE062817390758F00E945D0156
S113075081E08093A5061092AA061092AC0610922E
S1130760AB068091AB069091AC0601969093AC06D3
S11307708093AB068091A5068130D1F42091A60622
S11307803091A7068091A8069091A90628173907E9
S113079030F00E946D011092A7061092A606809177
S11307A0A6069091A70601969093A7068093A606A5
S11307B0DF91CF91FF91EF91BF91AF919F918F9175
S11307C07F916F915F914F913F912F910F90009284
S11307D05F000F901F9018951F920F9200905F007A
S11307E00F921124CF93DF93CDB7DEB7FFCF1F92C3
S11307F00F9200905F000F921124CF93DF93CDB737
S1130800DEB7FFCF1F920F9200905F000F9211246A
S1130810CF93DF93CDB7DEB7FFCF1F920F92009037
S11308205F000F921124CF93DF93CDB7DEB7FFCFD4
S11308301F920F9200905F000F921124CF93DF93C9
S1130840CDB7DEB7FFCF1F920F9200905F000F92DB
S11308501124CF93DF93CDB7DEB7FFCF1F920F9252
S113086000905F000F921124CF93DF93CDB7DEB7D2
S1130870FFCF1F920F9200905F000F921124CF932D
S1130880DF93CDB7DEB7FFCF1F920F9200905F00CA
S11308900F921124CF93DF93CDB7DEB7FFCF1F9212
S11308A00F9200905F000F921124CF93DF93CDB786
S11308B0DEB7FFCF1F920F9200905F000F921124BA
S11308C0CF93DF93CDB7DEB7FFCF1F920F92009087
S11308D05F000F921124CF93DF93CDB7DEB7FFCF24
S11308E01F920F9200905F000F921124CF93DF9319
S11308F0CDB7DEB7FFCF1F920F9200905F000F922B
S11309001124CF93DF93CDB7DEB7FFCF1F920F92A1
S113091000905F000F921124CF93DF93CDB7DEB721
S1130920FFCF1F920F9200905F000F921124CF937C
S1130930DF93CDB7DEB7FFCF1F920F9200905F0019
S11309400F921124CF93DF93CDB7DEB7FFCF1F9261
S11309500F9200905F000F921124CF93DF93CDB7D5
S1130960DEB7FFCF1F920F9200905F000F92112409
S1130970CF93DF93CDB7DEB7FFCF1F920F920090D6
S11309805F000F921124CF93DF93CDB7DEB7000041
S11309900000DF91CF910F9000925F000F901F90A5
S11309A01895CF93DF93CDB7DEB728970FB6F89499
S11309B0DEBF0FBECDBF98878F8380915A0590917B
S11309C05B05880F991F845A9A4F2F813885F90146
S11309D020813181FC013183208380918A0687390B
S11309E0C8F480915A0590915B05019690935B053C
S11309F080935A0580918A068F5F80938A0680913E
S1130A005A0590915B058739910520F010925B059A
S1130A1010925A0580918B06882349F480918A06A6
S1130A20873908F47EC081E080938B067AC01982EE
S1130A301A821B821C8286E990E09E838D8345C0C6
S1130A408D819E81880F991F8F519D4FFC0180815C
S1130A5091819C0140E050E080915A0590915B05A2
S1130A60880F991F845A9A4FFC0180819181CC018F
S1130A70A0E0B0E0BC01CD010E948710DC01CB01F5
S1130A8029813A814B815C81820F931FA41FB51F7A
S1130A9089839A83AB83BC8380915A0590915B05CB
S1130AA0019690935B0580935A0580915A05909125
S1130AB05B058739910520F010925B0510925A0569
S1130AC08D819E8101979E838D838D819E81992343
S1130AD00CF0B6CF80915A0590915B0501969093E6
S1130AE05B0580935A0580915A0590915B0587397F
S1130AF0910520F010925B0510925A0589819A8124
S1130B00AB81BC81072E75E1B695A795979587951E
S1130B107A95D1F7702D9C018F819885FC013183E2
S1130B20208380918B0628960FB6F894DEBF0FBE03
S1130B30CDBFDF91CF910895CF93DF93CDB7DEB7CB
S1130B4028970FB6F894DEBF0FBECDBF98878F836A
S1130B508091100490911104880F991F8E5E9B4F11
S1130B602F813885F90120813181FC013183208373
S1130B7080915805833AC8F480911004909111042F
S1130B8001969093110480931004809158058F5F0F
S1130B90809358058091100490911104833A910533
S1130BA020F01092110410921004809159058823AA
S1130BB049F480915805833A08F48FC081E080930A
S1130BC059058BC019821A821B821C8282EA90E02A
S1130BD09E838D8348C08D819E81880F991F855681
S1130BE09E4FFC01808191819C01442737FD4095F3
S1130BF0542F8091100490911104880F991F8E5ED8
S1130C009B4FFC0180819181AA2797FDA095BA2F63
S1130C10BC01CD010E948710DC01CB0129813A81FE
S1130C204B815C81820F931FA41FB51F89839A8314
S1130C30AB83BC838091100490911104019690932E
S1130C401104809310048091100490911104833A4C
S1130C50910520F010921104109210048D819E8150
S1130C6001979E838D838D819E8199230CF0B3CF50
S1130C708091100490911104019690931104809333
S1130C8010048091100490911104833A910520F08E
S1130C90109211041092100489819A81AB81BC8155
S1130CA0883C9105A105B10524F419821A821B829E
S1130CB01C8289819A81AB81BC81072E72E1B59532
S1130CC0A795979587957A95D1F7702D9C013E5FEE
S1130CD08F819885FC013183208380915905289662
S1130CE00FB6F894DEBF0FBECDBFDF91CF9108954C
S1130CF0CF93DF93CDB7DEB768970FB6F894DEBF16
S1130D000FBECDBF1A8219821C821B821E821D82D5
S1130D1080918C06882F90E08230910509F453C0AD
S1130D208330910534F4009769F081309105E9F03E
S1130D3026C78330910509F4BDC48430910509F4B4
S1130D4018C71DC70E94C40D8AEF8B87000081E07D
S1130D509B85992309F480E09B8591509B87882388
S1130D60B1F781E080938C060EC7809195068823A5
S1130D7009F408C782E080938C060E94F3018093F3
S1130D80000180910001882F90E0292F2F938F93E9
S1130D9081E491E0892F8F9381E491E08F930E9405
S1130DA0AE100F900F900F900F9064E086E491E0E6
S1130DB00E942E0F80910001882F90E00E94670FFF
S1130DC00E94DA00DFC682E38C87198A0E948E01B2
S1130DD082E00E9453000E94CB0E84E60E94880E9B
S1130DE081E30E94560E01C000008C8586958C8795
S1130DF08C85882311F481E08C87188A1F861E86CF
S1130E001D863AC080918F068823B1F18D859E8519
S1130E1001969E878D8780918D06882F90E0880F9C
S1130E20991F835D984FFC01208131818F859889BA
S1130E308217930768F480918D06882F90E0880FBD
S1130E40991F835D984FFC0180819181988B8F87D6
S1130E5080918F06882381F080918D068F5F809327
S1130E608D0680918F06815080938F0680918D0628
S1130E708E3110F010928D068D859E8582309105FD
S1130E8008F28F8598898333F3E09F07F0F08C850F
S1130E900E94880E84E60E94FD0E8C85882F90E0C7
S1130EA00E94670F8AE00E94FD0E8DE00E94FD0EF5
S1130EB08F8598890E94670F8AE00E94FD0E8DE05D
S1130EC00E94FD0E0E942F101DC08C850E94560E9C
S1130ED089E60E94FD0E8C85882F90E00E94670FA2
S1130EE08AE00E94FD0E8DE00E94FD0E8F85988998
S1130EF00E94670F8AE00E94FD0E8DE00E94FD0EA5
S1130F000E942F108989882359F083E080938C06EE
S1130F100E94BA0E0E94A90080E00E94530008C0FB
S1130F208C85813009F060CF81E0898B5DCF000032
S1130F3080918F068823D9F380918D06882F90E0C5
S1130F40880F991F835D984FFC01808191819E8B4E
S1130F508D8B8D899E89988F8F8BCE0145960E94AB
S1130F60D104882311F1CE0147960E949C05882361
S1130F70E1F080918F06882381F080918D068F5F48
S1130F8080938D0680918F06815080938F06809187
S1130F908D068E3110F010928D0663E18BE491E0A2
S1130FA00E942E0F1E861D86D7C280918F0688232D
S1130FB009F4BDCF80918D068F5F80938D0680915B
S1130FC08F06815080938F0680918D068E3108F4B0
S1130FD0AECF10928D06ABCF80918F06882309F493
S1130FE0BBC28D859E8501969E878D8784E08A8B02
S1130FF033C08A89992787FD90952A89332727FD4D
S1131000309521503109220F331F2155394FF901F1
S113101020813181880F991F8155994FFC013183BB
S113102020838A89992787FD90952A89332727FD6C
S1131030309521503109220F331F2754394FF901BC
S113104020813181880F991F8754994FFC01318386
S113105020838A8981508A8B8A89181654F2809158
S11310608D06882F90E0880F991F835D984FFC01AF
S1131070808191819093B0068093AF0680918F0612
S1131080882381F080918D068F5F80938D068091F7
S11310908F06815080938F0680918D068E3110F0DB
S11310A010928D068091AF069091B0069093BA0687
S11310B08093B9068FEA96E00E94D10489EB96E00A
S11310C00E949C058D859E858530910508F4BEC0DF
S11310D02091B3063091B4068091AF069091B0068A
S11310E02817390708F4B2C02091B3063091B4062A
S11310F08091B1069091B2062817390708F4A6C06A
S11311002091B3063091B4068091B5069091B6064D
S11311102817390708F49AC02091B3063091B40611
S11311208091B7069091B8062817390708F48EC045
S113113080910E018530D0F580910E01882F90E0CA
S11311402091B3063091B406880F991F8F5F9E4F8C
S1131150FC013183208380910E01882F90E0880F59
S1131160991F8F5F9E4FFC012081318180910B017B
S113117090910C012817390798F480910E01882F5B
S113118090E0880F991F8F5F9E4FFC0180819181B1
S113119090930C0180930B0180910E0180930D01BB
S11311A080910E018F5F80930E0150C02091B30691
S11311B03091B40680910B0190910C018217930732
S11311C008F044C080910D01882F90E02091B3066F
S11311D03091B406880F991F8F5F9E4FFC013183B5
S11311E0208310920D018FEF93E090930C01809374
S11311F00B0184E08A8B27C08A89992787FD909503
S1131200880F991F8F5F9E4FFC012081318180914F
S11312100B0190910C012817390790F48A899927BA
S113122087FD9095880F991F8F5F9E4FFC018081E9
S1131230918190930C0180930B018A8980930D0115
S11312408A8981508A8B8A898823B4F68D859E8504
S11312508530910508F4BCC02091B3063091B406E2
S11312608091AF069091B0068217930708F4B0C03E
S11312702091B3063091B4068091B1069091B206E4
S11312808217930708F4A4C02091B3063091B406E2
S11312908091B5069091B6068217930708F498C01A
S11312A02091B3063091B4068091B7069091B806A8
S11312B08217930708F48CC08091D0068530D0F54E
S11312C08091D006882F90E02091B3063091B40627
S11312D0880F991F8D53994FFC013183208380918E
S11312E0D006882F90E0880F991F8D53994FFC01E9
S11312F0208131818091CD069091CE06821793078B
S113130098F48091D006882F90E0880F991F8D5310
S1131310994FFC01808191819093CE068093CD06F4
S11313208091D0068093CF068091D0068F5F809302
S1131330D0064EC02091B3063091B4068091CD06FC
S11313409091CE062817390708F042C08091CF0645
S1131350882F90E02091B3063091B406880F991F2E
S11313608D53994FFC01318320831092CF06109244
S1131370CE061092CD0684E08A8B27C08A899927ED
S113138087FD9095880F991F8D53994FFC012081FB
S113139031818091CD069091CE068217930790F407
S11313A08A89992787FD9095880F991F8D53994FA6
S11313B0FC01808191819093CE068093CD068A8929
S11313C08093CF068A8981508A8B8A898823B4F6D0
S11313D08D859E858530910508F4BEC02091BD069B
S11313E03091BE068091B9069091BA062817390744
S11313F008F4B2C02091BD063091BE068091BB06B0
S11314009091BC062817390708F4A6C02091BD06A0
S11314103091BE068091BF069091C0062817390707
S113142008F49AC02091BD063091BE068091C10691
S11314309091C2062817390708F48EC080911C01C8
S11314408530D0F580911C01882F90E02091BD0655
S11314503091BE06880F991F815F9E4FFC01318336
S1131460208380911C01882F90E0880F991F815F51
S11314709E4FFC01208131818091190190911A01C4
S11314802817390798F480911C01882F90E0880F61
S1131490991F815F9E4FFC018081918190931A0175
S11314A08093190180911C0180931B0180911C0180
S11314B08F5F80931C0150C02091BD063091BE0601
S11314C08091190190911A018217930708F044C082
S11314D080911B01882F90E02091BD063091BE06BB
S11314E0880F991F815F9E4FFC01318320831092E6
S11314F01B018FEF93E090931A018093190184E00C
S11315008A8B27C08A89992787FD9095880F991F10
S1131510815F9E4FFC01208131818091190190915E
S11315201A012817390790F48A89992787FD90951D
S1131530880F991F815F9E4FFC0180819181909358
S11315401A01809319018A8980931B018A89815029
S11315508A8B8A898823B4F68D859E858439F1E146
S11315609F0708F439CD1E861D8632C08D859E8561
S1131570880F991F8D53994FFC01808191812B8194
S11315803C81820F931F9C838B838D859E85880F5E
S1131590991F8F5F9E4FFC018081918129813A813F
S11315A0820F931F9A8389838D859E85880F991F47
S11315B0815F9E4FFC01808191812D813E81820F4C
S11315C0931F9E838D838D859E8501969E878D872F
S11315D08D859E858530910548F28B819C819C0187
S11315E0ADECBCEC0E9497109695879596958795DF
S11315F09C838B8389819A819C01ADECBCEC0E9415
S1131600971096958795969587959A8389838D816A
S11316109E819C01ADECBCEC0E9497109695879539
S1131620969587959E838D832D813E8141E2429FCD
S1131630C001439F900D11249695879596958795A3
S11316409C01ABE7B4E10E949710969587959A8721
S1131650898729813A818B819C81281B390B4BE432
S1131660429FC001439F900D1124969587959695AE
S113167087959C01ABE7B4E10E94971096958795F6
S113168098878F838A858F9389858F9388858F9395
S11316908F818F938FE591E0892F8F938FE591E070
S11316A08F930E94AE100F900F900F900F900F9099
S11316B00F9069C20E94A0010E94EA001C8A1B8A42
S11316C051C280918D06882F90E0880F991F835D09
S11316D0984FFC018081918190931E0180931D019C
S11316E080918F06882381F080918D068F5F80938F
S11316F08D0680918F06815080938F0680918D0690
S11317008E3110F010928D0680911D0190911E0172
S113171090932901809328018DE191E00E94D104E6
S113172088E291E00E949C058B89823009F049C0CF
S113173080918D06882F90E0880F991F835D984FC4
S1131740FC0140815181209128013091290180912F
S11317501D0190911E01652F6F934F93432F4F935B
S11317602F93292F2F938F9387E691E0892F8F93BF
S113177087E691E08F930E94AE104DB75EB7485F45
S11317805F4F0FB6F894DEBF0FBECDBF8091F60653
S11317909091F706929582958F7089279F7089277B
S11317A0292F2F938F9382E791E0892F8F9382E7DC
S11317B091E08F930E94AE100F900F900F900F90B6
S11317C01B8A8B898F5F8B8B80911F0190912001E5
S11317D001969093200180931F01809123019091A1
S11317E024010196909324018093230180911F0189
S11317F090912001803B54E0950788F080911D0171
S113180090911E0190932201809321011092200156
S113181010921F018091270181608093270180919C
S1131820230190912401803BE4E09E0788F080919D
S11318301D0190911E019093260180932501109221
S11318402401109223018091270181608093270154
S11318508091270182708823E9F080911D01909185
S11318601E01909322018093210180911D0190918A
S11318701E0190932601809325011092200110925D
S11318801F011092240110922301809127018D7F62
S11318908093270120911D0130911E018091210127
S11318A0909122018217930788F480911D019091F1
S11318B01E01909322018093210110922001109225
S11318C01F018091270181608093270120911D01D0
S11318D030911E0180912501909126012817390726
S11318E088F480911D0190911E01909326018093AC
S11318F02501109224011092230180912701816017
S1131900809327018091270181708823E9F0209139
S11319102101309122018091250190912601281BFB
S1131920390B8F8198852817390748F08091270152
S11319308260809327011092D2061092D106809182
S113194027018E7F809327018091D1069091D20642
S113195001969093D2068093D1068091D1069091FE
S1131960D206292F2F938F9388E791E0892F8F93A5
S113197088E791E08F930E94AE100F900F900F9024
S11319800F902091D1063091D20680910001682FEA
S113199070E04CE251E0649FC001659F900D749F1C
S11319A0900D11242817390740F00E94AB010E94C2
S11319B0CF0184E080938C06DBC020912801309114
S11319C0290189859A852817390708F4ADC08091C3
S11319D0D3069091D406009709F4C4C08091F5060B
S11319E08F5F8093F5068091F506803110F0109298
S11319F0F5068091F806803109F067C08091D3061E
S1131A009091D4068F31910508F489C02091F6068F
S1131A103091F7068091F506882F90E00296880FA2
S1131A20991F8F52994FFC0180819181A901481B14
S1131A30590BCA014E979093F7068093F6062091AE
S1131A40F6063091F7068091D3069091D406820F62
S1131A50931F4E969093F7068093F6068091F506B1
S1131A60882F90E02091D3063091D4060296880FF7
S1131A70991F8F52994FFC01318320838091F60680
S1131A809091F706929582958F7089279F70892788
S1131A90823CF1E09F07B0F08091F9068F5F80935C
S1131AA0F9068091F9068530D0F166E08EE791E081
S1131AB00E942E0F0E94BD010E94CF0184E08093FA
S1131AC08C0656C01092F9062AC08091D3069091D4
S1131AD0D4068536910518F18091F506882F90E09B
S1131AE02091D3063091D4060296880F991F8F5205
S1131AF0994FFC01318320832091F6063091F7063B
S1131B008091D3069091D406820F931F9093F70689
S1131B108093F6068091F8068F5F8093F806109202
S1131B20D4061092D3061EC08091D3069091D40699
S1131B3001969093D4068093D3068091D306909116
S1131B40D4068C3DF5E09F0768F065E085E891E0F8
S1131B500E942E0F0E940A010E94CF0184E080930C
S1131B608C0606C080918F06882309F0AACD0BC08D
S1131B700AC065E08BE891E00E942E0F04C0109229
S1131B808C0601C00000C4C8CF93DF93CDB7DEB785
S1131B90F8940E94C3000E94D60D0E94080E0E9471
S1131BA0DC0E78940000DF91CF910895CF93DF93FA
S1131BB0CDB7DEB785E290E024E0FC01208384E227
S1131BC090E02FEFFC01208388E290E0FC0110827A
S1131BD087E290E028E3FC0120838BE290E0FC01A3
S1131BE010828AE290E02AEFFC01208389E690E0EB
S1131BF023E0FC0120838DE390E021E0FC012083BD
S1131C0088E690E0FC0110820000DF91CF910895F6
S1131C10CF93DF93CDB7DEB784E490E022E0FC01FC
S1131C20208385E490E0FC01108286E490E0FC01CE
S1131C30108287E490E020EDFC01208388E490E0AA
S1131C40FC01108280E890E0FC01108281E890E0C1
S1131C502CE0FC01208385E890E0FC01108284E8FC
S1131C6090E0FC01108287E890E0FC01108286E895
S1131C7090E0FC01108289E890E024EFFC012083CD
S1131C8088E890E024E2FC0120838BE890E0FC01EA
S1131C9010828AE890E0FC0110828FE690E022E056
S1131CA0FC0120830000DF91CF910895CF93DF934F
S1131CB000D0CDB7DEB78A838BE290E02BE230E030
S1131CC0F90120812068FC0120838A81898317C05F
S1131CD08BE290E02BE230E0F901308120E423270D
S1131CE0FC0120838BE290E02BE230E0F9013081AB
S1131CF020E42327FC012083898181508983898101
S1131D00882331F700000F900F90DF91CF91089551
S1131D10CF93DF9300D0CDB7DEB78A838BE290E018
S1131D202BE230E0F90120812F77FC0120838A81A6
S1131D30898317C08BE290E02BE230E0F901308117
S1131D4020E42327FC0120838BE290E02BE230E0A7
S1131D50F901308120E42327FC012083898181500B
S1131D6089838981882331F700000F900F90DF91D8
S1131D70CF910895CF93DF93CDB7DEB78BE290E098
S1131D802BE230E0F90120812062FC012083000075
S1131D90DF91CF910895CF93DF93CDB7DEB78BE278
S1131DA090E02BE230E0F90120812F7DFC012083BB
S1131DB00000DF91CF910895CF93DF93CDB7DEB7C5
S1131DC085EC90E0FC01108284EC90E020E1FC01C1
S1131DD0208380EC90E022E0FC01208381EC90E001
S1131DE028EDFC01208383E391E090936C078093BA
S1131DF06B070000DF91CF910895CF93DF9300D05C
S1131E00CDB7DEB78A8381E08983809192068931D8
S1131E10F0F480919006882F90E08550994F2A81A4
S1131E20FC01208380919206893190F48091900680
S1131E308F5F80939006809192068F5F80939206C5
S1131E4080919006893120F01092900601C0198289
S1131E5089810F900F90DF91CF910895CF93DF93F5
S1131E6000D000D0CDB7DEB79B838A836C838AE031
S1131E700E94FD0E8DE00E94FD0E198211C0898121
S1131E80992787FD90952A813B81820F931FFC013E
S1131E9080810E94FD0E882379F089818F5F898378
S1131EA08981282F332727FD30958C81882F90E056
S1131EB02817390724F301C000000E942F100000E6
S1131EC00F900F900F900F90DF91CF910895CF93C3
S1131ED0DF93CDB7DEB760970FB6F894DEBF0FBEC1
S1131EE0CDBF988B8F878AE0E1E9F1E0DE0115969A
S1131EF001900D928A95E1F78F859889969587953B
S1131F0096958795969587959C01A5ECB0E20E94DD
S1131F109710929582958F7089279F70892789835E
S1131F208981482F50E028E13CEF429FC001439F44
S1131F30900D529F900D11249C018F859889820FDA
S1131F40931F96958795969587959C01ABE7B4E189
S1131F500E949710969587958A838981482F50E02F
S1131F6028E13CEF429FC001439F900D529F900D8A
S1131F7011249C018A81482F50E06CE96403C0015C
S1131F80659F900D1124280F391F8F859889820F22
S1131F90931F9C01ADECBCEC0E949710969587951D
S1131FA096958795969587958B83998188E1989FD7
S1131FB0902D11242A818CE9289F802D1124980FBB
S1131FC08F85980F8B81880F282F220F220F820F65
S1131FD08195890F8C838981882361F08981882F79
S1131FE090E09E012B5F3F4F820F931FFC01808185
S1131FF00E94FD0E8A81882361F08A81882F90E0F7
S11320009E012B5F3F4F820F931FFC0180810E9432
S1132010FD0E8B81882361F08B81882F90E09E01D7
S11320202B5F3F4F820F931FFC0180810E94FD0EA6
S11320308C81882F90E09E012B5F3F4F820F931F6E
S1132040FC0180810E94FD0E0E942F1060960FB645
S1132050F894DEBF0FBECDBFDF91CF910895CF932B
S1132060DF93CDB7DEB780919206882359F1000043
S113207080EC90E0FC018081882F90E080729927A9
S11320800097B1F386EC90E020919106222F30E086
S11320902550394FF9012081FC012083809192065B
S11320A0882381F0809191068F5F809391068091BF
S11320B0920681508093920680919106893110F0A6
S11320C0109291060000DF91CF910895CF93DF9392
S11320D000D01F92CDB7DEB789837B836A8300006B
S11320E080EC90E0FC018081882F90E08072992739
S11320F00097B1F386EC90E02981FC01208380E015
S113210090E00F900F900F90DF91CF910895DB0135
S11321108F939F930E94A310BF91AF91A29F800DB4
S1132120911DA39F900DB29F900D11240895A29F1D
S1132130B001B39FC001A39F01D0B29F700D811D58
S11321401124911D08950E949710A59F900DB49F8E
S1132150900DA49F800D911D11240895A0E0B0E07E
S1132160E4EBF0E10C944E13FE013596619171910C
S1132170AF0180916B0790916C070E94C210E2E05E
S11321800C946A13ACE0B0E0E8ECF0E10C943E137C
S11321907C016B018A01FC0117821682838181FF15
S11321A0C6C188248394912C8C0E9D1EF7019381C3
S11321B0F60193FD859193FF81916F01882309F4C2
S11321C0B2C1853239F493FD859193FF81916F01FA
S11321D0853229F4B70190E00E94B412E7CF512C64
S11321E0312C20E02032A8F48B3261F028F48032C4
S11321F051F0833271F40BC08D3239F0803349F4DD
S1132200216028C02260246025C0286023C020618A
S113221021C027FD27C0382F30533A3078F426FFE9
S113222006C0FAE05F9E300D1124532E13C08AE0DD
S1132230389E300D1124332E20620CC08E3221F4CE
S113224026FD71C1206406C08C3611F4206802C0DA
S1132250883641F4F60193FD859193FF81916F01D6
S11322608111C0CF982F9554933018F09052933029
S113227028F40C5F1F4FFFE3F9830DC0833631F060
S1132280833771F0833509F05EC023C0F801808183
S113229089830E5F1F4F44244394512C540115C06D
S11322A03801F2E06F0E711CF801A080B18026FFA6
S11322B003C0652D70E002C06FEF7FEFC5012C876E
S11322C00E94A9122C0183012C856FE7262E22225D
S11322D018C03801F2E06F0E711CF801A080B180C3
S11322E026FF03C0652D70E002C06FEF7FEFC501CC
S11322F02C870E949E122C012C8550E8252E222A20
S1132300830123FC1CC006C0B70180E290E00E9458
S1132310B4123A94832D90E048165906A8F30FC0DE
S1132320F50127FC859127FE81915F01B70190E0BB
S11323300E94B41231103A94F1E04F1A510841143A
S1132340510471F7EDC0843611F0893641F5F80176
S113235027FF07C060817181828193810C5F1F4FC9
S113236008C060817181882777FD8095982F0E5F62
S11323701F4F4FE6B42EB22297FF09C09095809567
S1132380709561957F4F8F4F9F4FF0E8BF2A2AE0E9
S113239030E0A4010E94E012A82EA81843C085379B
S11323A031F43FEEB32EB2222AE030E024C099EF9C
S11323B0B92EB2228F36B9F020F4883509F0B3C0B3
S11323C00DC0803721F0883709F0ADC002C020E18C
S11323D0B22AB4FE0BC084E0B82A08C024FF09C0A6
S11323E0E6E0BE2A06C028E030E005C020E130E087
S11323F002C020E132E0F801B7FE07C060817181BC
S1132400828193810C5F1F4F06C06081718180E0DF
S113241090E00E5F1F4FA4010E94E012A82EA8189E
S1132420FFE7BF22B6FE0BC02B2D2E7FA51450F460
S1132430B4FE0AC0B2FC08C02B2D2E7E05C07A2C37
S11324402B2D03C07A2C01C0752C24FF0DC0FE0176
S1132450EA0DF11D8081803311F4297E09C022FF29
S113246006C07394739404C0822F867809F0739421
S113247023FD14C020FF0FC05A2C731460F4530CB6
S11324805718732C08C0B70180E290E02C870E9493
S1132490B41273942C857314B0F304C0731410F441
S11324A0371801C0312C24FF12C0B70180E390E03B
S11324B02C870E94B4122C8522FF1EC021FF03C06A
S11324C088E590E002C088E790E0B7010CC0822F55
S11324D0867891F021FD02C080E201C08BE227FDE5
S11324E08DE2B70190E00E94B41206C0B70180E308
S11324F090E00E94B4125A94A514C0F3AA94F40173
S1132500EA0DF11DB701808190E00E94B412A11080
S1132510F5CF06C0B70180E290E00E94B4123A946D
S11325203110F8CF43CEF7012681378102C02FEF57
S11325303FEFC9012C96E2E10C945A13FC0105907B
S1132540615070400110D8F7809590958E0F9F1FB1
S11325500895FC016150704001900110D8F78095F6
S113256090958E0F9F1F08950F931F93CF93DF9322
S11325708C01EB018B8181FD03C00FEF1FEF1AC0AB
S113258082FF0DC02E813F818C819D8128173907E0
S113259064F4E881F9810193F983E88306C0E8854E
S11325A0F985802F0995892B41F78E819F810196AA
S11325B09F838E83C801DF91CF911F910F9108955E
S11325C0FA01AA27283051F1203181F1E8946F9360
S11325D06E7F6E5F7F4F8F4F9F4FAF4FB1E03ED006
S11325E0B4E03CD0670F781F891F9A1FA11D680FA4
S11325F0791F8A1F911DA11D6A0F711D811D911DD7
S1132600A11D20D009F468943F912AE0269F11244B
S11326103019305D3193DEF6CF010895462F4770AF
S1132620405D4193B3E00FD0C9F7F6CF462F4F700A
S1132630405D4A3318F0495D31FD4052419302D068
S1132640A9F7EACFB4E0A69597958795779567950E
S1132650BA95C9F700976105710508959B01AC010E
S11326600A2E06945795479537952795BA95C9F735
S1132670620F731F841F951FA01D08952F923F9210
S11326804F925F926F927F928F929F92AF92BF927E
S1132690CF92DF92EF92FF920F931F93CF93DF932A
S11326A0CDB7DEB7CA1BDB0B0FB6F894DEBF0FBE87
S11326B0CDBF09942A88398848885F846E847D84D4
S11326C08C849B84AA84B984C884DF80EE80FD80D6
S11326D00C811B81AA81B981CE0FD11D0FB6F8944C
S11126E0DEBF0FBECDBFED010895F894FFCF0D
S11326EE0F00000000000000000000FF03000000C7
S11326FE000000000000000000FF030000000000C6
S113270E0000000000FFFF020000000000000000B7
S113271E000002000000020000000066100000002D
S113272E006125750A004475723A0046696C74207E
S113273E427566666572732046696C6C65640074D6
S113274E25750A25750A007225750A25750A2575DB
S113275E0A006D6825750A006D6225750A004C6FB6
S113276E77204842004E6F20484200416C61726DE2
S113277E0030313233343536373839FFFFFEFFFC43
S113278EFFFAFFF8FFF5FFF2FFF0FFEEFFEEFFEFAB
S113279EFFF1FFF6FFFCFF04000C001300170019F5
S11327AE0015000D000000EFFFDCFFCAFFBEFFBCEA
S11327BEFFC8FFE8FF1E006B00CD004201C10141BE
S11327CE02B5021103480350032103B9021C02543B
S11327DE0173008FFFC0FE22FECAFDCCFD30FEF158
S11327EEFE00003D017D028A032A0422043F035A9F
S11327FE0161FE5CFA6CF5D3EFEAE923E4FBDEF744
S113280EDA93D839D837DAB3DEA8E5DDEEF0F94F2E
S113281E064B131E20FE2B2736EF3DD3427E44D3A8
S113282E42EF3D2736FE2B1E204B134F06F0F9DDEB
S113283EEEA8E5B3DE37DA39D893D8F7DAFBDE2320
S113284EE4EAE9D3EF6CF55CFA61FE5A013F032228
S113285E042A048A037D023D010000F1FE30FECC01
S113286EFDCAFD22FEC0FE8FFF730054011C02B987
S113287E022103500348031103B5024102C1014270
S113288E01CD006B001E00E8FFC8FFBCFFBEFFCAEF
S113289EFFDCFFEFFF00000D0015001900170013F9
S11328AE000C000400FCFFF6FFF1FFEFFFEEFFEE5D
S11328BEFFF0FFF2FFF5FFF8FFFAFFFCFFFEFFFF4C
S11328CEFF0D000E001200180021002D003D0051D6
S11328DE006A008800AC00D8000C0149019001E3A5
S11328EE014302B2023003BF0361041805E505C9B2
S11328FE06C607DF08130A660BD80C6B0E1F10F7FB
S113290E11F31314165B18C81A5B1D1420F322F866
S113291E252229702CE02F71332137EE3AD53ED380
S113292E42E6460A4B3B4F7553B657F75B35606C20
S113293E649668AF6CB2709A746278077C827FD0AA
S113294E82EC85D2887E8BEC8D1A900392A693002E
S113295E950F96D29647976E974797D2960F9600F5
S113296E95A69303921A90EC8D7E8BD288EC85D02B
S113297E82827F077C62789A74B270AF6C96686CB0
S113298E643560F75BB65775533B4F0A4BE646D337
S113299E42D53EEE3A21377133E02F702C2229F8BE
S11329AE25F32214205B1DC81A5B181416F313F7B3
S11329BE111F106B0ED80C660B130ADF08C607C95D
S11329CE06E50518056104BF033003B2024302E3B2
S11329DE01900149010C01D800AC0088006A005135
S11329EE003D002D002100180012000E000D000005
S9030000FC
